:03000000021B7868
:0C1B7800787FE4F6D8FD7581210219BDCC
:101ABA0020202048656C6C6F20576F726C6421007F
:101ACA002A2A2A2A2A2A2A2A2A2A2A2A2A2A2A0096
:0F1ADA00313233006162633A2564636D25660023
:0619BD00121954121B3741
:1019C3007815E4F2087464F27BFF7A1A79BAE4FFBB
:1019D300121A807BFF7A1A79CA7F01121A807BFF61
:1019E3007A1A79DA7815E2FF08E2781BCFF208EF6A
:1019F300F208120F243F8000007F02121A807BFF3F
:101A03007A1A79DE7815E2FF08E2781BCFF208EF45
:0E1A1300F208120F243F8000007F03121A8099
:021A210080A0A3
:100003004F766572466C6F7700252E336600256444
:1000130000CEC21060028C0000FE9292929292FE79
:1000230000000004047E01407E42427E427E424242
:100033007E4000CAAA1060028C00FE9292929292B5
:1000430092FE00000004047E014448507F40407F3C
:100053005048444000B6C80000FC242424FC252654
:1000630024FC242424040040308F80844C5525250F
:1000730025554C80808000C1AC404042CC000444F4
:10008300645C47F444444404000040201F2044447B
:100093004444447F4444444400BDD3101010FF1033
:1000A30050445465C64464544440000444827F0170
:1000B30082824A562322524E820200D7B40008306D
:1000C30000FF20202020FF2020222C2000040402F7
:1000D30001FF8040300E01061820408000CCAC00A8
:1000E3000484844424548F142444848404000041ED
:1000F3003900003C4040424C40407004093100B597
:10010300C6807000FF201004040404FC04040404EB
:1001130000806018070830000040807F0000000066
:1001230000BFAA80828282FE8282828282FE8282D3
:10013300828000008040300F0000000000FF0000BC
:10014300000000B9D800001011161010F0101014A0
:1001530013100000008181414121110D030D112174
:100163004141818100B9E24040424458C0407F4050
:10017300C0504846404000808040201807000000DF
:100183003F404040407800D5D500FE424242FE0049
:1001930042A29E82A2C2BE0000806F080828CF0040
:1001A300002FC8080828CF0000B4F3202020202007
:1001B3002020FF20202020202020008080402010AD
:1001C3000C0300030C102040808000C6F820104C64
:1001D3004754545454545454D404040000000000AD
:1001E30000000000000000000F3040F000D1B90013
:1001F30000FE0282828282FA8282828282020080EE
:10020300601F40404040407F40404458404000C948
:10021300E8404042CC0040A09E8282829EA02020E3
:10022300000000003F908840432C10284641808006
:1002330000B1B8809090484C57242424544C4480F7
:10024300808000000000FF4949497F494949FF0078
:10025300000000D2D10000E2828282828282828206
:10026300FE0000000000003F40404040404040404E
:100273004040780000CEB480808888888888FF88D2
:100283008888888880800020201008040201FF01EC
:1002930002040810202000A3BA00000000000000A0
:1002A30000000000000000000000003636000000DF
:1002B300000000000000000000A1E6060909E6F8BE
:1002C3000C040202020202041E0000000000071FC9
:1002D300302040404040402010000000000000005B
:1002E3000000000000000000000000000000F80013
:1002F300000000000000330000000000100C02109A
:100303000C020000000000000000000040C0784024
:10031300C0780000043F04043F040000708888FC98
:1003230008300000182020FF211E00F008F0806034
:1003330018000000310C031E211E0000F008887015
:100343000000001E21232C1927211000120E00008B
:100353000000000000000000000000000000E018A2
:10036300040200000000071820400000020418E007
:100373000000000040201807000000404080F0808B
:100383004040000202010F0102020000000000E0F1
:10039300000000000101010F010101000000000045
:1003A300000000009070000000000000000000004A
:1003B3000000000001010101010100000000000034
:1003C300000000003030000000000000000000C00A
:1003D300380400006018070000000000E01008085F
:1003E30010E000000F102020100F0000001010F884
:1003F300000000000020203F2020000070080808B3
:1004030008F00000302824222130000030080808BA
:100413008870000018202121221C00000080403039
:10042300F8000000060524243F242400F888888867
:100433000808000019202020110E0000E010888811
:10044300900000000F112020201F000018080888CA
:100453006818000000003E010000000070880808D2
:10046300887000001C222121221C0000F0080808CB
:1004730010E0000001122222110F00000000C0C092
:100483000000000000003030000000000000800089
:10049300000000000000E000000000000080402099
:1004A30010080000010204081020000040404040F2
:1004B3004040000002020202020200000810204035
:1004C30080000000201008040201000070480808A2
:1004D3008870000000003037000000C030C828E8F2
:1004E30010E000071827282F2817000000C038E065
:1004F300000000203C23020227382008F88888885F
:10050300700000203F202020110E00C03008080892
:10051300083800071820202010080008F8080808E9
:1005230010E000203F202020100F0008F88888E802
:10053300081000203F20202320180008F88888E8AE
:10054300081000203F200003000000C03008080806
:1005530038000007182020221E020008F8080000B7
:1005630008F808203F210101213F20000808F8086E
:100573000800000020203F2020000000000808F8A9
:10058300080800C08080807F00000008F888C02829
:10059300180800203F20012638200008F808000032
:1005A300000000203F20202020300008F8F800F849
:1005B300F80800203F013E013F200008F830C0004A
:1005C30008F808203F200007183F00E0100808083B
:1005D30010E0000F10202020100F0008F808080872
:1005E30008F000203F210101010000E01008080885
:1005F30010E0000F10282830504F0008F888888832
:10060300887000203F2000030C3020007088080809
:100613000838000038202121221C00180808F80897
:100623000818000000203F2000000008F808000020
:1006330008F808001F202020201F000878880000E9
:10064300C83808000007380E01000008F800F80059
:10065300F8080000033E013E03000008186880808C
:1006630068180820302C03032C30200838C800C831
:100673003808000000203F2000000010080808C8C8
:100683003808002038262120201800000000FE0230
:100693000202000000007F40404000000438C00018
:1006A300000000000000010638C00000020202FE44
:1006B300000000004040407F0000000000040202F0
:1006C3000400000000000000000000000000000023
:1006D300000000808080808080808000020204000F
:1006E3000000000000000000000000000080808087
:1006F30000000000192424123F200010F000808025
:10070300000000003F112020110E00000000808037
:10071300800000000E112020201100000080808046
:1007230090F000001F202020103F200000808080D8
:10073300800000001F242424241700008080E09000
:100743009020000020203F202000000000808080B7
:10075300808000006B94949493600010F00080807C
:10076300800000203F210000203F20008098980057
:100773000000000020203F2020000000000080989F
:1007830098000000C08080807F000010F00000808F
:10079300808000203F240629302000001010F8003C
:1007A3000000000020203F20200000808080808007
:1007B300808000203F20003F20003F808000808019
:1007C300800000203F210000203F20000080808027
:1007D300800000001F202020201F008080008080D8
:1007E30000000080FF912020110E00000000808097
:1007F300008000000E11202091FF80808080008007
:1008030080800020203F21200001000000808080A4
:100813008080000033242424241900008080E08099
:100823008000000000001F202010008080000000D6
:10083300808000001F202020103F208080800080C7
:1008430080800000030C300C030000808000808057
:10085300008080010E300C07380601008080800084
:100863008080000020310E2E312000808080000027
:100873008080800081867818060100008080808057
:100883008080000021302C22213000000000000075
:10089300FC020200000000013E404000000000FF97
:1008A30000000000000000FF0000000202FC000046
:1008B30000000040403E010000000000020102026F
:1008C300040200000000000000000000E01008081F
:1008D30010E000000F102020100F0000001010F88F
:1008E300000000000020203F2020000070080808BE
:1008F30008F00000302824222130000030080808C6
:100903008870000018202121221C00000080403044
:10091300F8000000060524243F242400F888888872
:100923000808000019202020110E0000E01088881C
:10093300900000000F112020201F000018080888D5
:100943006818000000003E010000000070880808DD
:10095300887000001C222121221C0000F0080808D6
:0B09630010E0000001122222110F0022
:0B1B5C00EC2410FF121B67EB2404FFB9
:101B6700C2B2D2A5C2A6C2A700008F800000D2A72A
:011B7700224B
:101AE900F582E435F0F583E58224CEF582E5833489
:061AF90008F583E493FFF1
:101AFF00C2B2D2A5D2A6C2A700008F800000D2A783
:011B0F0022B3
:10195400C2B3E4FF0FEFB464FBC2B2D2B37FE212AE
:101964001B67E4FF0FEFB464FB7FA0121B677FC803
:10197400121B677FA6121B677FA4121B677FA2122C
:101984001B677FF8121B677F01121B677F81121B85
:10199400677F23121B677F25121B677F2F121B672C
:1019A400E4FF0FEFB464FB7F40121B677FAF121B91
:0819B40067E4FF0FEFB464FBD0
:0119BC002208
:101B3700E4FEEE24B0FF121B677F10121B677F04C1
:101B4700121B67E4FDE4FF121AFF0DEDB480F60ED9
:041B5700EEB408DE02
:011B5B002267
:07165A007800EFF208EDF249
:10166100D3940740037F00227800E2D394804003A3
:101671007F00227801E224B0F2E2FF121B67120D13
:10168100F870030217327801E2FF121B6718E2FFBC
:10169100C4540FFE7802F2EF540F08F2EE2410FF4B
:1016A100121B67E22404FF121B67E4FE120DF8FF10
:1016B10075F022EEA42414F582E5F03400F583E4FC
:1016C100936F705D900001120E11FF75F022EEA470
:1016D1002415F582E5F03400F583E4936F7042FD43
:1016E100EDB410187801E204FF121B6708E2241020
:1016F100FF121B6708E22404FF121B6775F022EE3C
:10170100A42416F582E5F03400F583E5822DF582F7
:10171100E43583121AFA0DEDB420C57800E22410E5
:10172100F20EEE64327085740229F9E43AFA021677
:031731007F7F01B6
:011734002292
:0417F800AA05AE0789
:1017FC00EDD3940740037F0022EED3948040037F07
:10180C00002274E02BFB74B02AFAFF121B67EEC4A3
:10181C00540FFF7851F2EE540FF9EF2410FF121B06
:10182C0067E92404FF121B67E4FEEEB40816EA0411
:10183C00FF121B677851E22410FF121B67E9240486
:10184C00FF121B67EEFD3395E0FC75F010EBA42D39
:10185C00F582E5F03CF583E58224DEF582E5833400
:0B186C0002121AFA0EEEB410C17F0148
:01187700224E
:081A2300E2FD7BFF7A0079036C
:101A2B00784CEFF2784EEBF208EAF208E9F2784DD7
:101A3B00EDF2D3940740037F0022784CE2D39480DD
:101A4B0040037F0022784EE2FB08E2FA08E2F9122B
:101A5B000DF8FB601D784CE2FF08E2FD1217F878D9
:101A6B004CE22408F27850E22401F218E23400F23E
:051A7B0080D37F012271
:0B1735007804EFF27806EBF218EDF2FA
:10174000E47807F2EDD3940740037F00227804E2A7
:10175000FED3948040037F00227806E2D394FF40BA
:1017600009AF0618121A237F00227E027806E2FFD4
:1017700075F00A8474082EF8E5F0F2EF75F00A842B
:101780007806F21EC3EE6480948050E0E4FE740894
:101790002EF8E2700AEE047807F20EEEB403EF784A
:1017A00005E224B0F2E2FF121B677807E2FDEDC309
:1017B000940350417805E2FF121B6718E2FFC454FE
:1017C0000FFCEF540FFB121B5CE4FEEEB4080B7829
:1017D00005E204FF121B67121B5C74082DF8E2750A
:1017E000F010A42E121AE90EEEB410DF7804E224F1
:0717F00008F20D80B97F0132
:0117F70022CF
:0F155D00780BEFF2780DEAF208EBF2780CEDF272
:10156C00E4780FF2EDD3940740037F0022780BE26E
:10157C00D3948040037F0022780DE2FE08E2FFE462
:10158C00FCFDFBFA7901F8C3120EE2500B780BE26A
:10159C00FF08121A237F00227B04780DE2FE08E27A
:1015AC00FF7C007D0A120E6274102BF8EDF2780DA0
:1015BC00E2FE08E2FF7C007D0A120E62780DEEF26C
:1015CC0008EFF21BC3EB6480948050CEE4FB7410E4
:1015DC002BF8E2700AEB04780FF20BEBB405EF7802
:1015EC000CE224B0F2E2FF121B67780FE2FEEEC3AE
:1015FC0094055057780CE2FF121B6718E2FFC45495
:10160C000FFDEF540FFCED2410FF121B67EC2404AC
:10161C00FF121B67E4FBEBB40816780CE204FF1214
:10162C001B67ED2410FF121B67EC2404FF121B67D1
:10163C0074102EF8E275F010A42B121AE90BEBB40F
:0D164C0010D4780BE22408F20E80A37F0179
:01165900226E
:071878007839EFF208EDF2F0
:10187F00E4784BF2EDD3940740037F00227839E2EE
:10188F00D3948040037F0022784F74FFF2087400D6
:10189F00F208740CF2783BE2FC08E2FD08E2FE0865
:1018AF00E2FF7852120F187BFE7A00793F12100C6C
:1018BF007839E2FF08E2FD7BFE7A00793F121A2B9E
:1018CF00E4FF743F2FF8E27002800B784BE224089C
:0A18DF00F20FEFB40BEC784BE2FFC0
:0118E90022DC
:0B18EA007839EFF208EDF2AF03AE0218
:1018F500E47847F2EDD3940740037F00227839E27C
:10190500D3948040037F0022784F74FFF20874005F
:10191500F2087411F208EEF208EFF27BFE7A007914
:101925003B12100C7839E2FF08E2FD7BFE7A007964
:101935003B121A2BE4FF743B2FF8E27002800B7800
:0E19450047E22408F20FEFB40BEC7847E2FF04
:011953002271
:0A141E00782EEBF208EAF208E9F27A
:1014280078347420F2E408F208F208F2EF25E008B4
:10143800F2782EE2FB08E2FA08E2F9120DF87003DE
:1014480002155A642560177837E2FF08E2FD120D8D
:10145800F8FB1217F87837E22408F202154C7830B6
:10146800E22401F218E23400F218E2FB08E2FA087A
:10147800E2F9120DF8B43006783474308048782ECA
:10148800E2FB08E2FA08E2F9120DF8FFC36480945F
:10149800B04041D3EF648094B950397835E2FE0802
:1014A800E2FF7C007D0A120E507835EEF208EFF26A
:1014B800120DF8FF3395E0FEEF24D0FFEE34FFFE67
:1014C800E22FF218E23EF27830E22401F218E23418
:1014D80000F280AA120DF8249A60272402704D7831
:1014E80037E2FF08E2FD7831E2FB0808E2F924025E
:1014F800F218E2FA3400F2120EB7FBAAF01218EA58
:1015080080237831E2FB0808E2F92404F218E2FAB1
:101518003400F2120EF8783B120F187838E2FD18F2
:10152800E2FF1218787837E22FF280187837E2FF56
:1015380008E2FD782EE2FB08E2FA08E2F9120DF85B
:10154800FB1217F87830E22401F218E23400F202B4
:0415580014397F00C3
:01155C00226C
:0A1A80007818EBF208EAF208E9F228
:101A8A00782A74FEF2087400F208741BF2782AE2CB
:101A9A00F908E2FA08E27831C9F208EAF208E9F24A
:0F1AAA007818E2FB08E2FA08E2F912141E7F0036
:011AB900220A
:100FB000E508244FF8E2050822784C300702784F04
:100FC000E475F001120F3D020DF82000EB7F2ED2E8
:100FD000008018EF540F2490D43440D4FF30040B19
:100FE000EF24BFB41A0050032461FFE50960021525
:100FF00009050CE50C7002050B30070D784CE47503
:10100000F001120F3DEF020E3E021B107403D207D7
:101010008003E4C207F508784C120F4DE4F509F59A
:101020000BF50CE50960077F20120FEB80F5750AC0
:10103000FFC201C200C202C203C205C206C2081238
:101040000FB9FF700D3007057F00120FFCAF0CAE1B
:101050000B22B4255FC2D5C204120FB9FF24D0B44D
:101060000A00501A75F00A780930D50508B6FF0154
:1010700006C6A426F620D5047002D20380D924CF58
:10108000B41A00EF5004C2E5D2040212E8D2018083
:10109000C6D20080C0D20280BCD2D580BAD2058030
:1010A000B47F20120FEB2002077401B5090040F154
:1010B000120FB0FF120FEB021023D208D206809558
:1010C000120FB0FB120FB0FA120FB0F94A4B7006B4
:1010D00079DF7A137BFF20022EE509602A7E008EDD
:1010E00082758300120E1160060EEE650A70F0C262
:1010F000D5EBC0E0EAC0E0E9C0E0EE121348D0E072
:10110000F9D0E0FAD0E0FB120DF8FF60AAEBC0E0E6
:10111000EAC0E0E9C0E0120FEBD0E02401F9D0E032
:101120003400FAD0E0FBE50A0460DCD50AD98087F8
:10113000D20280A212132B60F7E50A700104120993
:101140006EA90A600DE50A600914F50A1213D2EFC0
:1011500060F3EA30E702F404C3995077EAF4250A11
:101160000430E701E404F50A800D12132B60C1EA94
:10117000050A250A12096EEA7862F230E701E425D1
:101180000A04D50A0420050114121348E4C0E01231
:1011900013D27862E2601320E70714F2120FD380B3
:1011A0002204F2D0E014C0E07F00120FD3E50A6001
:1011B00007120FCA150A800B300503120FCAD0E0C0
:1011C000021023D0E00480C512132B60A0E50A04AE
:1011D00012096E7862EAF2E50A2005026001042431
:0C11E0000412134874FF04C0E01213D284
:1011EC00120FD3E50A2005026003120FCAD0E0B536
:1011FC000AE87F45120FDD7862E27F2B30E7047F2F
:10120C002DF404C0E0120FEBD0E075F00A84C0F0AE
:10121C00120FD4D0E0120FD402102379108002796F
:10122C0008C206C2088008D2D5790A8004790AC29D
:10123C00D5E50A047002F50AE4FAFDFEFF120FB0C0
:10124C00FC7B08200113120FB0FD7B1030000A123A
:10125C000FB0FE120FB0FF7B20EC3382D592D5502D
:10126C0013C3E43000069FFFE49EFEE42001039DBF
:10127C00FDE49CFCE4CBF8C201EC700CCFCECDCCE1
:10128C00E824F8F870F38017C3EF33FFEE33FEED6C
:10129C0033FDEC33FCEB33FB994002FB0FD8E9EB4D
:1012AC00300105F8D0E0C448B201C0E00AEC4D4E64
:1012BC004F78207B0070C2EAB50A0040BCC0E01237
:1012CC00134AD0F0D0E0200104C4C0E0C4B201C085
:1012DC00F0120FD4D0F0D5F0EB021023120F5610F1
:1012EC00C05312275810914C108D42122B4F1233B1
:1012FC004412334910A643123955116A4611C84598
:10130C0011344713FF5010952D10992E10BC2B1033
:10131C009D2310BA2013E82A105548000010B4E59C
:10132C000AB4FF03750A06120FB0FC120FB0FD12BF
:10133C000FB0FE120FB0FF785B02099D790AA2D59F
:10134C00200314300509B910020404B9080104A2E1
:10135C00D52006025001042002689202B509005003
:10136C0034C0E07F203003197F30A2027206720570
:10137C00500F1213A1C202C206C205C2087F3080F0
:10138C000F300503E9C0E0120FEB300503D0E0F994
:10139C00D0E0B509CC3005177F30B9100C120FEB2B
:1013AC007F583004077F788003B90803120FEB30A5
:1013BC0002057F2D020FEB7F202008F87F2B2006E3
:1013CC00F322920280CF7F00B407005005245BF813
:1013DC00E2FF22286E756C6C2900D201120FB0301E
:1013EC0001F8C201780930D50108F60210552D50CC
:1013FC00434958120FB02403B405004001E4901384
:10140C00FA93120FDC743A120FDCD2037509040242
:02141C00122795
:10096E00F920E72824F950037907E4F42402FB1850
:10097E00DBFDE224FB5014E9600DE4F218E204F210
:0F098E00B40A08E4F2D9F57401F20A22C2D522A4
:10099D00ED33EC3392D5FA602AB4FF33EDC2E77B29
:1009AD00FF60067A0979C2E4227A0979CB20D50451
:1009BD007A0979C6224E614E002B494E46002D49CB
:1009CD004E4600E47A08F208DAFC7B00740722E850
:1009DD00C0E0ECC0E0EDC0E0EEC0E0EFC0E0EA75D5
:1009ED00F010A4CAABF075F04DA42BFBE435F0FC70
:1009FD00EA2410FAEB34C5FBEC34D9FCEDC2E7FF69
:100A0D0075F056A4F42411C5F0F434C58FF0A42A62
:100A1D00E5F03BE43CF220E714120D6ED0E0FFD080
:100A2D00E0FED0E0FDD0E0FC120CA18014F4041225
:100A3D000D6ED0E0FFD0E0FED0E0FDD0E0FC120B5B
:100A4D0098D0E0F8E2FAEDD2E7CD33EC332482FB17
:100A5D00E4C3CF33CFCE33CECD33CD33DBF37B07F2
:100A6D0075F00A846004F2081B0AE5F0F2088FF0B5
:100A7D00740AA4FFACF08EF0740AA42CFEACF050F6
:100A8D00010C8DF0740AA42CFDE435F0F208DBDEC8
:030A9D00740722B9
:100AA000020DE3E86480F8E933E83360110460F094
:100AB000ED33EC337009E8FCE9FDEAFEEBFF2204BC
:100AC00060DED3EB9FEA9EE99DE8C2E78CF0C2F7B7
:100AD00095F0400CE8CCF8E9CDF9EACEFAEBCFFB83
:100AE000120DAE85D0F05804700320D5B3E8047021
:100AF000075002B2D5020DED92D5EC0460F7E4CCBC
:100B0000C0E0C398F8603B94186008400DD0E0FB4B
:100B1000020DC5E4FBFAC9FC8028E830E406E4C90C
:100B2000FBE4CAFCE830E305E4C9CACBFCE854079F
:100B30006010F8C3E913F9EA13FAEB13FBEC13FCAA
:100B4000D8F130F52FC3E49CFCEF9BFFEE9AFEED4D
:100B500099FDD0E0FBEF4E4D4C701222DB03020DED
:100B6000EAEC2CFCEF33FFEE33FEED33FDED30E726
:100B7000EB020DC5EF2BFFEE3AFEED39FDD0E0FBA9
:100B800050130BBB0003020DEDED13FDEE13FEEF52
:080B900013FFEC13FC020DC57C
:100B9800EC4D6011E8497017ED33EC3304600DE457
:100BA800FCFFFEFD22E933E8330470F8020DE3127E
:100BB8000DAE58046009E4CC24815006285009027F
:100BC8000DED284003020DEAC0E0EB4A7044B980FD
:100BD80006D0E0FB020DD9EF4E701CBD8008EBFF7C
:100BE800EAFEE9FD80EBE98DF0A4FEE5F0020C8158
:100BF800E9CDF9EAFEEBFFEF89F0A4FCE5F0CE8938
:100C0800F0A42EFFE435F0CD89F0A42DFEE435F0F4
:100C18008067EF4E7005BD80D780C3EF8BF0A4AC22
:100C2800F0EE8BF0A42CFCE435F0F8EF8AF0A42C5D
:100C3800E5F038FCE433CB8DF0A42CFCE5F03BF870
:100C4800EE8AF0A42CFCE5F038F8E433CF89F0A460
:100C58002CFCE5F038CF3400CE89F0A42FFFE5F066
:100C68003EFEE433C98DF0A42EFEE5F039CD8AF0BE
:100C7800A42FFFE5F03EFEE43DFD33D0E0FB500736
:100C88000BBB000F020DEDEC2CFCEF33FFEE33FE37
:060C9800ED33FD020DC565
:100C9E00020DEDEC5D046005E859047003020DE3EE
:100CAE00120DAE580460F6EC4860F2EC7004FDFED6
:100CBE00FF22C860DB2481C85009C3986002500629
:100CCE00020DEA9850CAF582E9294B4A7005AB82AB
:100CDE00020DD975F0007C1A7880C3EF9BEE9AED69
:100CEE0099400DC3EF9BFFEE9AFEED99FDE842F0A1
:100CFE00DC23ACF0D0E0FFD0E0FED0E0FDAB8220F4
:100D0E00E7101BEB60BAEC2CFCEF33FFEE33FEED7D
:100D1E0033FD020DC5E803F830E705C0F075F000AD
:100D2E00EF2FFFEE33FEED33FD40B830E7C280AA61
:100D3E003F8000004120000042C80000447A0000BD
:100D4E00461C400047C35000497424004B1896803F
:100D5E004CBEBC205A0E1BCA6753C21C749DC5AE36
:100D6E00FB60065407601C2323120D9CEB54386065
:100D7E0009120D88120D97120B98ECF8EDF9EEFA98
:100D8E00EFCB22EB120D9780F1543803241C900DFB
:100D9E003EFE93FC0EEE93FD0EEE930ECE93FF22CF
:100DAE00E9D2E7C933E833F892D5EDD2E7CD33EC8B
:070DBE0033FC5002B2D52204
:100DC500EC30E7100FBF000C0EBE00080DBD00048F
:100DD5000BEB6014A2D5EB13FCED92E7FD2274FF3B
:100DE500FCFDFEFF22E480F8A2D574FF13FC7D8094
:030DF500E480EFA8
:100DF800BB010689828A83E0225002E722BBFE02F9
:090E0800E32289828A83E493222B
:100E1100BB010CE58229F582E5833AF583E0225096
:100E210006E92582F8E622BBFE06E92582F8E222E0
:0D0E3100E58229F582E5833AF583E49322FA
:100E3E00BB010689828A83F0225002F722BBFE0193
:020E4E00F3228D
:100E5000EF8DF0A4A8F0CF8CF0A428CE8DF0A42EB6
:020E6000FE2270
:100E6200BC000BBE0029EF8DF084FFADF022E4CC74
:100E7200F875F008EF2FFFEE33FEEC33FCEE9DEC3D
:100E8200984005FCEE9DFE0FD5F0E9E4CEFD22ED83
:100E9200F8F5F0EE8420D21CFEADF075F008EF2FCD
:100EA200FFED33FD4007985006D5F0F222C398FDBE
:050EB2000FD5F0EA225B
:100EB700BB010A89828A83E0F5F0A3E02250068706
:100EC700F009E71922BBFE07E3F5F009E3192289C8
:0B0ED700828A83E493F5F074019322FB
:100EE200EB9FF5F0EA9E42F0E99D42F0EC6480C887
:060EF20064809845F02227
:100EF800BB010789828A83020F885005E9F8020F2F
:100F08007CBBFE05E9F8020F9489828A83020FA050
:0C0F1800ECF208EDF208EEF208EFF22215
:100F2400D083D082E493F208740193F2087402939C
:090F3400F208740393F2740473D3
:100F3D00FAE2FB0808E2F925F0F218E2CA3AF222C9
:090F4D00EBF208EAF208E9F222D5
:100F5600D083D082F8E4937012740193700DA3A32A
:100F660093F8740193F5828883E47374029368603E
:060F7600EFA3A3A380DF3E
:101B1000EFB40A07740D121B1B740A309811A899B0
:101B2000B8130CC2983098FDA899C298B811F63035
:071B300099FDC299F599220D
:0C0F7C00E6FC08E6FD08E6FE08E6FF22A1
:0C0F8800E0FCA3E0FDA3E0FEA3E0FF22DC
:0C0F9400E2FC08E2FD08E2FE08E2FF2299
:100FA000E493FC740193FD740293FE740393FF2297
:00000001FF
